{
  "address": "0x22EAafe4004225c670C8A8007887DC0a9433bd86",
  "abi": [
    {
      "inputs": [
        {
          "internalType": "address",
          "name": "_tgt",
          "type": "address"
        },
        {
          "internalType": "address",
          "name": "_titn",
          "type": "address"
        },
        {
          "internalType": "address",
          "name": "initialOwner",
          "type": "address"
        }
      ],
      "stateMutability": "nonpayable",
      "type": "constructor"
    },
    {
      "inputs": [],
      "name": "InvalidAmountReceived",
      "type": "error"
    },
    {
      "inputs": [],
      "name": "InvalidTokenReceived",
      "type": "error"
    },
    {
      "inputs": [],
      "name": "MergeEnded",
      "type": "error"
    },
    {
      "inputs": [],
      "name": "MergeLocked",
      "type": "error"
    },
    {
      "inputs": [
        {
          "internalType": "address",
          "name": "owner",
          "type": "address"
        }
      ],
      "name": "OwnableInvalidOwner",
      "type": "error"
    },
    {
      "inputs": [
        {
          "internalType": "address",
          "name": "account",
          "type": "address"
        }
      ],
      "name": "OwnableUnauthorizedAccount",
      "type": "error"
    },
    {
      "inputs": [],
      "name": "ReentrancyGuardReentrantCall",
      "type": "error"
    },
    {
      "inputs": [
        {
          "internalType": "address",
          "name": "token",
          "type": "address"
        }
      ],
      "name": "SafeERC20FailedOperation",
      "type": "error"
    },
    {
      "inputs": [],
      "name": "TooEarlyToClaimRemainingTitn",
      "type": "error"
    },
    {
      "inputs": [],
      "name": "ZeroAmount",
      "type": "error"
    },
    {
      "anonymous": false,
      "inputs": [
        {
          "indexed": true,
          "internalType": "address",
          "name": "user",
          "type": "address"
        },
        {
          "indexed": false,
          "internalType": "uint256",
          "name": "amount",
          "type": "uint256"
        }
      ],
      "name": "ClaimTitn",
      "type": "event"
    },
    {
      "anonymous": false,
      "inputs": [
        {
          "indexed": true,
          "internalType": "address",
          "name": "user",
          "type": "address"
        },
        {
          "indexed": false,
          "internalType": "uint256",
          "name": "titnOut",
          "type": "uint256"
        }
      ],
      "name": "ClaimableTitnUpdated",
      "type": "event"
    },
    {
      "anonymous": false,
      "inputs": [
        {
          "indexed": true,
          "internalType": "address",
          "name": "token",
          "type": "address"
        },
        {
          "indexed": false,
          "internalType": "uint256",
          "name": "amount",
          "type": "uint256"
        }
      ],
      "name": "Deposit",
      "type": "event"
    },
    {
      "anonymous": false,
      "inputs": [
        {
          "indexed": false,
          "internalType": "uint256",
          "name": "timestamp",
          "type": "uint256"
        }
      ],
      "name": "LaunchTimeSet",
      "type": "event"
    },
    {
      "anonymous": false,
      "inputs": [
        {
          "indexed": false,
          "internalType": "enum IMerge.LockedStatus",
          "name": "newStatus",
          "type": "uint8"
        }
      ],
      "name": "LockedStatusUpdated",
      "type": "event"
    },
    {
      "anonymous": false,
      "inputs": [
        {
          "indexed": true,
          "internalType": "address",
          "name": "previousOwner",
          "type": "address"
        },
        {
          "indexed": true,
          "internalType": "address",
          "name": "newOwner",
          "type": "address"
        }
      ],
      "name": "OwnershipTransferred",
      "type": "event"
    },
    {
      "anonymous": false,
      "inputs": [
        {
          "indexed": true,
          "internalType": "address",
          "name": "token",
          "type": "address"
        },
        {
          "indexed": false,
          "internalType": "uint256",
          "name": "amount",
          "type": "uint256"
        },
        {
          "indexed": true,
          "internalType": "address",
          "name": "to",
          "type": "address"
        }
      ],
      "name": "Withdraw",
      "type": "event"
    },
    {
      "anonymous": false,
      "inputs": [
        {
          "indexed": true,
          "internalType": "address",
          "name": "user",
          "type": "address"
        },
        {
          "indexed": false,
          "internalType": "uint256",
          "name": "amount",
          "type": "uint256"
        }
      ],
      "name": "WithdrawRemainingTitn",
      "type": "event"
    },
    {
      "inputs": [],
      "name": "TGT_TO_EXCHANGE",
      "outputs": [
        {
          "internalType": "uint256",
          "name": "",
          "type": "uint256"
        }
      ],
      "stateMutability": "view",
      "type": "function"
    },
    {
      "inputs": [],
      "name": "TITN_ARB",
      "outputs": [
        {
          "internalType": "uint256",
          "name": "",
          "type": "uint256"
        }
      ],
      "stateMutability": "view",
      "type": "function"
    },
    {
      "inputs": [
        {
          "internalType": "uint256",
          "name": "amount",
          "type": "uint256"
        }
      ],
      "name": "claimTitn",
      "outputs": [],
      "stateMutability": "nonpayable",
      "type": "function"
    },
    {
      "inputs": [
        {
          "internalType": "address",
          "name": "",
          "type": "address"
        }
      ],
      "name": "claimableTitnPerUser",
      "outputs": [
        {
          "internalType": "uint256",
          "name": "",
          "type": "uint256"
        }
      ],
      "stateMutability": "view",
      "type": "function"
    },
    {
      "inputs": [
        {
          "internalType": "address",
          "name": "",
          "type": "address"
        }
      ],
      "name": "claimedTitnPerUser",
      "outputs": [
        {
          "internalType": "uint256",
          "name": "",
          "type": "uint256"
        }
      ],
      "stateMutability": "view",
      "type": "function"
    },
    {
      "inputs": [
        {
          "internalType": "contract IERC20",
          "name": "token",
          "type": "address"
        },
        {
          "internalType": "uint256",
          "name": "amount",
          "type": "uint256"
        }
      ],
      "name": "deposit",
      "outputs": [],
      "stateMutability": "nonpayable",
      "type": "function"
    },
    {
      "inputs": [
        {
          "internalType": "address",
          "name": "user",
          "type": "address"
        }
      ],
      "name": "getClaimableTitnPerUser",
      "outputs": [
        {
          "internalType": "uint256",
          "name": "",
          "type": "uint256"
        }
      ],
      "stateMutability": "view",
      "type": "function"
    },
    {
      "inputs": [
        {
          "internalType": "address",
          "name": "user",
          "type": "address"
        }
      ],
      "name": "gettotalClaimedTitnPerUser",
      "outputs": [
        {
          "internalType": "uint256",
          "name": "",
          "type": "uint256"
        }
      ],
      "stateMutability": "view",
      "type": "function"
    },
    {
      "inputs": [],
      "name": "initialTotalClaimable",
      "outputs": [
        {
          "internalType": "uint256",
          "name": "",
          "type": "uint256"
        }
      ],
      "stateMutability": "view",
      "type": "function"
    },
    {
      "inputs": [],
      "name": "launchTime",
      "outputs": [
        {
          "internalType": "uint256",
          "name": "",
          "type": "uint256"
        }
      ],
      "stateMutability": "view",
      "type": "function"
    },
    {
      "inputs": [],
      "name": "lockedStatus",
      "outputs": [
        {
          "internalType": "enum IMerge.LockedStatus",
          "name": "",
          "type": "uint8"
        }
      ],
      "stateMutability": "view",
      "type": "function"
    },
    {
      "inputs": [
        {
          "internalType": "address",
          "name": "from",
          "type": "address"
        },
        {
          "internalType": "uint256",
          "name": "amount",
          "type": "uint256"
        },
        {
          "internalType": "bytes",
          "name": "extraData",
          "type": "bytes"
        }
      ],
      "name": "onTokenTransfer",
      "outputs": [],
      "stateMutability": "nonpayable",
      "type": "function"
    },
    {
      "inputs": [],
      "name": "owner",
      "outputs": [
        {
          "internalType": "address",
          "name": "",
          "type": "address"
        }
      ],
      "stateMutability": "view",
      "type": "function"
    },
    {
      "inputs": [
        {
          "internalType": "uint256",
          "name": "tgtAmount",
          "type": "uint256"
        }
      ],
      "name": "quoteTitn",
      "outputs": [
        {
          "internalType": "uint256",
          "name": "titnAmount",
          "type": "uint256"
        }
      ],
      "stateMutability": "view",
      "type": "function"
    },
    {
      "inputs": [],
      "name": "remainingTitnAfter1Year",
      "outputs": [
        {
          "internalType": "uint256",
          "name": "",
          "type": "uint256"
        }
      ],
      "stateMutability": "view",
      "type": "function"
    },
    {
      "inputs": [],
      "name": "renounceOwnership",
      "outputs": [],
      "stateMutability": "nonpayable",
      "type": "function"
    },
    {
      "inputs": [],
      "name": "setLaunchTime",
      "outputs": [],
      "stateMutability": "nonpayable",
      "type": "function"
    },
    {
      "inputs": [
        {
          "internalType": "enum IMerge.LockedStatus",
          "name": "newStatus",
          "type": "uint8"
        }
      ],
      "name": "setLockedStatus",
      "outputs": [],
      "stateMutability": "nonpayable",
      "type": "function"
    },
    {
      "inputs": [],
      "name": "tgt",
      "outputs": [
        {
          "internalType": "contract IERC20",
          "name": "",
          "type": "address"
        }
      ],
      "stateMutability": "view",
      "type": "function"
    },
    {
      "inputs": [],
      "name": "tgtBalance",
      "outputs": [
        {
          "internalType": "uint256",
          "name": "",
          "type": "uint256"
        }
      ],
      "stateMutability": "view",
      "type": "function"
    },
    {
      "inputs": [],
      "name": "titn",
      "outputs": [
        {
          "internalType": "contract IERC20",
          "name": "",
          "type": "address"
        }
      ],
      "stateMutability": "view",
      "type": "function"
    },
    {
      "inputs": [],
      "name": "titnBalance",
      "outputs": [
        {
          "internalType": "uint256",
          "name": "",
          "type": "uint256"
        }
      ],
      "stateMutability": "view",
      "type": "function"
    },
    {
      "inputs": [],
      "name": "totalTitnClaimable",
      "outputs": [
        {
          "internalType": "uint256",
          "name": "",
          "type": "uint256"
        }
      ],
      "stateMutability": "view",
      "type": "function"
    },
    {
      "inputs": [],
      "name": "totalTitnClaimed",
      "outputs": [
        {
          "internalType": "uint256",
          "name": "",
          "type": "uint256"
        }
      ],
      "stateMutability": "view",
      "type": "function"
    },
    {
      "inputs": [
        {
          "internalType": "address",
          "name": "newOwner",
          "type": "address"
        }
      ],
      "name": "transferOwnership",
      "outputs": [],
      "stateMutability": "nonpayable",
      "type": "function"
    },
    {
      "inputs": [
        {
          "internalType": "contract IERC20",
          "name": "token",
          "type": "address"
        },
        {
          "internalType": "uint256",
          "name": "amount",
          "type": "uint256"
        }
      ],
      "name": "withdraw",
      "outputs": [],
      "stateMutability": "nonpayable",
      "type": "function"
    },
    {
      "inputs": [],
      "name": "withdrawRemainingTitn",
      "outputs": [],
      "stateMutability": "nonpayable",
      "type": "function"
    }
  ],
  "transactionHash": "0x39dc9688720ccd10fbacd6cb2702d2cb2b7d3901868f946740e0144d9aaf9bd1",
  "args": [
    "0x429fed88f10285e61b12bdf00848315fbdfcc341",
    "0x2923b8ea6530FB0c9516f50Cd334e18d122ADAd3",
    "0x5166ef11e5dF6D4Ca213778fFf4756937e469663"
  ],
  "numDeployments": 1,
  "solcInputHash": "fdfc2e75a3091f15f48a45fa2f3c772b",
  "bytecode": "0x60c06040523480156200001157600080fd5b5060405162001346380380620013468339810160408190526200003491620000fa565b806001600160a01b0381166200006457604051631e4fbdf760e01b81526000600482015260240160405180910390fd5b6200006f816200008d565b5050600180556001600160a01b039182166080521660a05262000144565b600080546001600160a01b038381166001600160a01b0319831681178455604051919092169283917f8be0079c531659141344cd1fd0a4f28419497f9722a3daafe3b4186f6b6457e09190a35050565b80516001600160a01b0381168114620000f557600080fd5b919050565b6000806000606084860312156200011057600080fd5b6200011b84620000dd565b92506200012b60208501620000dd565b91506200013b60408501620000dd565b90509250925092565b60805160a0516111ab6200019b600039600081816101d901528181610484015281816105d9015281816107ee015281816109c60152610c640152600081816102c10152818161076b0152610ad401526111ab6000f3fe608060405234801561001057600080fd5b50600436106101a95760003560e01c806372d2c97e116100f9578063b5e8296d11610097578063f2fde38b11610071578063f2fde38b146103a3578063f3a75285146103b6578063f3fef3a3146103c9578063fa472d04146103dc57600080fd5b8063b5e8296d14610376578063b943d64014610389578063e9acd4ed1461039b57600080fd5b80638da5cb5b116100d35780638da5cb5b1461032a5780639e3e47e81461033b5780639f142baa1461035b578063a4c0ed361461036357600080fd5b806372d2c97e14610305578063790ca4131461030e57806379a4ce6a1461031757600080fd5b806347a751b4116101665780635935944911610140578063593594491461029357806367abd24c146102bc578063715018a6146102e357806372a1789a146102eb57600080fd5b806347a751b41461024f57806347b959d31461027857806347e7ef241461028057600080fd5b80630afdb3f8146101ae5780630e200933146101ca5780633ccf7e3e146101d45780633e9ff9c814610213578063457d2a331461021c578063471610ce1461022f575b600080fd5b6101b760085481565b6040519081526020015b60405180910390f35b6101d26103e5565b005b6101fb7f000000000000000000000000000000000000000000000000000000000000000081565b6040516001600160a01b0390911681526020016101c1565b6101b760055481565b6101b761022a366004610f7b565b610645565b6101b761023d366004610fa9565b60036020526000908152604090205481565b6101b761025d366004610fa9565b6001600160a01b031660009081526004602052604090205490565b6101b7610753565b6101d261028e366004610fcd565b6107e4565b6101b76102a1366004610fa9565b6001600160a01b031660009081526003602052604090205490565b6101fb7f000000000000000000000000000000000000000000000000000000000000000081565b6101d26108c5565b6009546102f89060ff1681565b6040516101c1919061100f565b6101b760075481565b6101b760025481565b6101d2610325366004610f7b565b6108d7565b6000546001600160a01b03166101fb565b6101b7610349366004610fa9565b60046020526000908152604090205481565b6101d2610a2e565b6101d2610371366004611037565b610ac1565b6101b76b01def004e4b97d732300000081565b6101b76a8fae67de37a5a28a80000081565b6101b7610c4c565b6101d26103b1366004610fa9565b610c9b565b6101d26103c43660046110c0565b610cd6565b6101d26103d7366004610fcd565b610d3c565b6101b760065481565b6103ed610dc6565b60006002541161043a5760405162461bcd60e51b815260206004820152601360248201527213185d5b98da081d1a5b59481b9bdd081cd95d606a1b60448201526064015b60405180910390fd5b6301da9c006002544261044d91906110f7565b101561046c57604051635fbfb5fb60e01b815260040160405180910390fd5b6040516370a0823160e01b81523060048201526000907f00000000000000000000000000000000000000000000000000000000000000006001600160a01b0316906370a0823190602401602060405180830381865afa1580156104d3573d6000803e3d6000fd5b505050506040513d601f19601f820116820180604052508101906104f79190611110565b905060075460000361050f5760078190556006546008555b33600090815260046020526040902054806105605760405162461bcd60e51b815260206004820152601160248201527027379031b630b4b6b0b13632902a24aa2760791b6044820152606401610431565b600060085460075461057291906110f7565b9050600060085482846105859190611129565b61058f9190611140565b9050600061059d8285611162565b3360009081526004602052604081208190556005805492935083929091906105c6908490611162565b9091555061060090506001600160a01b037f0000000000000000000000000000000000000000000000000000000000000000163383610df0565b60405181815233907f4bf97e95ca3d6c3c2ccfe8fcf9eec40b737eaf378c8ff73677a672f24bcdabdf9060200160405180910390a2505050505061064360018055565b565b6000806002541161068e5760405162461bcd60e51b815260206004820152601360248201527213185d5b98da081d1a5b59481b9bdd081cd95d606a1b6044820152606401610431565b60006002544261069e91906110f7565b90506276a7008110156106de576b01def004e4b97d73230000006106cd6a8fae67de37a5a28a80000085611129565b6106d79190611140565b915061074d565b6301da9c008110156107485760006106fa826301da9c006110f7565b90506107166b01def004e4b97d7323000000630163f500611129565b8161072c6a8fae67de37a5a28a80000087611129565b6107369190611129565b6107409190611140565b92505061074d565b600091505b50919050565b6040516370a0823160e01b81523060048201526000907f00000000000000000000000000000000000000000000000000000000000000006001600160a01b0316906370a08231906024015b602060405180830381865afa1580156107bb573d6000803e3d6000fd5b505050506040513d601f19601f820116820180604052508101906107df9190611110565b905090565b6107ec610e54565b7f00000000000000000000000000000000000000000000000000000000000000006001600160a01b0316826001600160a01b03161461083e57604051636d5f86d560e01b815260040160405180910390fd5b6a8fae67de37a5a28a80000081146108695760405163c20c399360e01b815260040160405180910390fd5b61087e6001600160a01b038316333084610e81565b816001600160a01b03167fe1fffcc4923d04b559f4d29a8bfc6cda04eb5b0d3c460751c2402c5c5cc9109c826040516108b991815260200190565b60405180910390a25050565b6108cd610e54565b6106436000610eba565b6108df610dc6565b3360009081526004602052604090205481111561093e5760405162461bcd60e51b815260206004820152601960248201527f4e6f7420656e6f75676820636c61696d61626c65207469746e000000000000006044820152606401610431565b336000908152600360205260408120805483929061095d908490611162565b909155505033600090815260046020526040812080548392906109819084906110f7565b92505081905550806005600082825461099a9190611162565b9250508190555080600660008282546109b391906110f7565b909155506109ed90506001600160a01b037f0000000000000000000000000000000000000000000000000000000000000000163383610df0565b60405181815233907f770fd956986104c67f2bbd1afec8ea0748d0e7b221abf52783e1bf7a56fa54e39060200160405180910390a2610a2b60018055565b50565b610a36610e54565b60025415610a865760405162461bcd60e51b815260206004820152601760248201527f4c61756e63682074696d6520616c7265616479207365740000000000000000006044820152606401610431565b4260028190556040519081527f904fc432821d8cadec83d758c8133c3003214b3735ce8c68f0d2428e2e2f2f2b9060200160405180910390a1565b610ac9610dc6565b336001600160a01b037f00000000000000000000000000000000000000000000000000000000000000001614610b1257604051636d5f86d560e01b815260040160405180910390fd5b600060095460ff166002811115610b2b57610b2b610ff9565b1480610b375750600254155b15610b555760405163dd4598d160e01b815260040160405180910390fd5b82600003610b7657604051631f2a200560e01b815260040160405180910390fd5b6301da9c0060025442610b8991906110f7565b1115610ba85760405163dd0c752360e01b815260040160405180910390fd5b6000610bb384610645565b6001600160a01b038616600090815260046020526040812080549293508392909190610be0908490611162565b925050819055508060066000828254610bf99190611162565b90915550506040518181526001600160a01b038616907fc40c9a2d24837f1575d46e0e5163180910813a5e2b15e10ff415ee252c521c129060200160405180910390a250610c4660018055565b50505050565b6040516370a0823160e01b81523060048201526000907f00000000000000000000000000000000000000000000000000000000000000006001600160a01b0316906370a082319060240161079e565b610ca3610e54565b6001600160a01b038116610ccd57604051631e4fbdf760e01b815260006004820152602401610431565b610a2b81610eba565b610cde610e54565b6009805482919060ff19166001836002811115610cfd57610cfd610ff9565b02179055507f5b540ba7ba0d49a9324e5449fbaaae3f7bb79fda716fab1b4c17f2a43c836fcb81604051610d31919061100f565b60405180910390a150565b610d44610e54565b610d6a610d596000546001600160a01b031690565b6001600160a01b0384169083610df0565b6000546001600160a01b03166001600160a01b0316826001600160a01b03167f56c54ba9bd38d8fd62012e42c7ee564519b09763c426d331b3661b537ead19b283604051610dba91815260200190565b60405180910390a35050565b600260015403610de957604051633ee5aeb560e01b815260040160405180910390fd5b6002600155565b6040516001600160a01b03838116602483015260448201839052610e4f91859182169063a9059cbb906064015b604051602081830303815290604052915060e01b6020820180516001600160e01b038381831617835250505050610f0a565b505050565b6000546001600160a01b031633146106435760405163118cdaa760e01b8152336004820152602401610431565b6040516001600160a01b038481166024830152838116604483015260648201839052610c469186918216906323b872dd90608401610e1d565b600080546001600160a01b038381166001600160a01b0319831681178455604051919092169283917f8be0079c531659141344cd1fd0a4f28419497f9722a3daafe3b4186f6b6457e09190a35050565b600080602060008451602086016000885af180610f2d576040513d6000823e3d81fd5b50506000513d91508115610f45578060011415610f52565b6001600160a01b0384163b155b15610c4657604051635274afe760e01b81526001600160a01b0385166004820152602401610431565b600060208284031215610f8d57600080fd5b5035919050565b6001600160a01b0381168114610a2b57600080fd5b600060208284031215610fbb57600080fd5b8135610fc681610f94565b9392505050565b60008060408385031215610fe057600080fd5b8235610feb81610f94565b946020939093013593505050565b634e487b7160e01b600052602160045260246000fd5b602081016003831061103157634e487b7160e01b600052602160045260246000fd5b91905290565b6000806000806060858703121561104d57600080fd5b843561105881610f94565b935060208501359250604085013567ffffffffffffffff8082111561107c57600080fd5b818701915087601f83011261109057600080fd5b81358181111561109f57600080fd5b8860208285010111156110b157600080fd5b95989497505060200194505050565b6000602082840312156110d257600080fd5b813560038110610fc657600080fd5b634e487b7160e01b600052601160045260246000fd5b8181038181111561110a5761110a6110e1565b92915050565b60006020828403121561112257600080fd5b5051919050565b808202811582820484141761110a5761110a6110e1565b60008261115d57634e487b7160e01b600052601260045260246000fd5b500490565b8082018082111561110a5761110a6110e156fea2646970667358221220ad3601940912556ece732fc7f01013c8ae43790402a21a280a82b62d2062779964736f6c63430008160033",
  "devdoc": {
    "errors": {
      "OwnableInvalidOwner(address)": [
        {
          "details": "The owner is not a valid owner account. (eg. `address(0)`)"
        }
      ],
      "OwnableUnauthorizedAccount(address)": [
        {
          "details": "The caller account is not authorized to perform an operation."
        }
      ],
      "ReentrancyGuardReentrantCall()": [
        {
          "details": "Unauthorized reentrant call."
        }
      ],
      "SafeERC20FailedOperation(address)": [
        {
          "details": "An operation with an ERC-20 token failed."
        }
      ]
    },
    "kind": "dev",
    "methods": {
      "owner()": {
        "details": "Returns the address of the current owner."
      },
      "renounceOwnership()": {
        "details": "Leaves the contract without owner. It will not be possible to call `onlyOwner` functions. Can only be called by the current owner. NOTE: Renouncing ownership will leave the contract without an owner, thereby disabling any functionality that is only available to the owner."
      },
      "transferOwnership(address)": {
        "details": "Transfers ownership of the contract to a new account (`newOwner`). Can only be called by the current owner."
      }
    },
    "version": 1
  },
  "userdoc": {
    "kind": "user",
    "methods": {
      "onTokenTransfer(address,uint256,bytes)": {
        "notice": "tgt token transferAndCall ERC677-like"
      },
      "withdraw(address,uint256)": {
        "notice": "Withdraw any locked contracts in Merge contract"
      }
    },
    "version": 1
  },
  "storageLayout": {
    "storage": [
      {
        "astId": 3841,
        "contract": "contracts/MergeTgt.sol:MergeTgt",
        "label": "_owner",
        "offset": 0,
        "slot": "0",
        "type": "t_address"
      },
      {
        "astId": 5276,
        "contract": "contracts/MergeTgt.sol:MergeTgt",
        "label": "_status",
        "offset": 0,
        "slot": "1",
        "type": "t_uint256"
      },
      {
        "astId": 5392,
        "contract": "contracts/MergeTgt.sol:MergeTgt",
        "label": "launchTime",
        "offset": 0,
        "slot": "2",
        "type": "t_uint256"
      },
      {
        "astId": 5396,
        "contract": "contracts/MergeTgt.sol:MergeTgt",
        "label": "claimedTitnPerUser",
        "offset": 0,
        "slot": "3",
        "type": "t_mapping(t_address,t_uint256)"
      },
      {
        "astId": 5400,
        "contract": "contracts/MergeTgt.sol:MergeTgt",
        "label": "claimableTitnPerUser",
        "offset": 0,
        "slot": "4",
        "type": "t_mapping(t_address,t_uint256)"
      },
      {
        "astId": 5402,
        "contract": "contracts/MergeTgt.sol:MergeTgt",
        "label": "totalTitnClaimed",
        "offset": 0,
        "slot": "5",
        "type": "t_uint256"
      },
      {
        "astId": 5404,
        "contract": "contracts/MergeTgt.sol:MergeTgt",
        "label": "totalTitnClaimable",
        "offset": 0,
        "slot": "6",
        "type": "t_uint256"
      },
      {
        "astId": 5406,
        "contract": "contracts/MergeTgt.sol:MergeTgt",
        "label": "remainingTitnAfter1Year",
        "offset": 0,
        "slot": "7",
        "type": "t_uint256"
      },
      {
        "astId": 5408,
        "contract": "contracts/MergeTgt.sol:MergeTgt",
        "label": "initialTotalClaimable",
        "offset": 0,
        "slot": "8",
        "type": "t_uint256"
      },
      {
        "astId": 5411,
        "contract": "contracts/MergeTgt.sol:MergeTgt",
        "label": "lockedStatus",
        "offset": 0,
        "slot": "9",
        "type": "t_enum(LockedStatus)6227"
      }
    ],
    "types": {
      "t_address": {
        "encoding": "inplace",
        "label": "address",
        "numberOfBytes": "20"
      },
      "t_enum(LockedStatus)6227": {
        "encoding": "inplace",
        "label": "enum IMerge.LockedStatus",
        "numberOfBytes": "1"
      },
      "t_mapping(t_address,t_uint256)": {
        "encoding": "mapping",
        "key": "t_address",
        "label": "mapping(address => uint256)",
        "numberOfBytes": "32",
        "value": "t_uint256"
      },
      "t_uint256": {
        "encoding": "inplace",
        "label": "uint256",
        "numberOfBytes": "32"
      }
    }
  }
}